:020000040000FA
:10000000980300200D0300001503000017030000F3
:10001000190300001B0300001D0300000000000086
:100020000000000000000000000000001F030000AE
:10003000210300000000000023030000250300004E
:100040009D04000045050000ED0500009506000038
:100050003D070000310300003303000035030000BA
:1000600037030000390300003B0300003D0300009C
:100070003F0300004103000043030000450300006C
:1000800047030000490300004B030000BD080000C7
:100090004F030000E10800005303000005090000C1
:1000A00057030000590300005B0300005D030000DC
:1000B0005F03000061030000E90700006503000022
:1000C00067030000690300006B03000029090000BA
:1000D0006F0300007103000073030000750300004C
:1000E0007703000079030000000000007B0300009C
:1000F0007D0300007F0300008103000083030000F4
:100100008503000087030000890300008B030000C3
:1001100000000000000000008D0300008F030000BD
:100120009103000093030000950300009703000073
:10013000990300009B0300009D0300009F03000043
:1001400000000000000000000000000000000000AF
:10015000A1030000A30300004D090000A703000055
:10016000000000000000000000000000000000008F
:10017000000000000000000000000000000000007F
:10018000000000000000000000000000000000006F
:10019000000000000000000000000000000000005F
:1001A000000000000000000000000000000000004F
:1001B00071090000AB03000095090000AF030000C7
:1001C000B9090000B3030000DD090000B703000017
:1001D000010A0000BB030000250A0000BF03000065
:1001E000490A0000C3030000C5030000000000002E
:1001F00000000000C7030000C9030000CB0300009B
:10020000CD030000CF03000000000000000000004C
:10021000D1030000D3030000D5030000D703000082
:10022000D9030000DB030000DD030000DF03000052
:10023000E1030000E3030000E5030000E703000022
:10024000E9030000EB030000ED030000EF030000F2
:10025000F1030000F3030000F5030000F7030000C2
:10026000F9030000FB030000FD03000000F002F8AA
:1002700000F03CF80AA090E8000C82448344AAF104
:100280000107DA4501D100F031F8AFF2090EBAE802
:100290000F0013F0010F18BFFB1A43F001031847BA
:1002A000E825000008260000103A24BF78C878C16D
:1002B000FAD8520724BF30C830C144BF04680C606C
:1002C000704700000023002400250026103A28BFB4
:1002D00078C1FBD8520728BF30C148BF0B607047B8
:1002E0001FB502F0B3FA1FBD10B510BD00F09BF8AA
:1002F0001146FFF7F5FF01F007FC00F0B9F803B471
:10030000FFF7F2FF03BC00F0C1F800003F48804750
:100310003F480047FEE7FEE7FEE7FEE7FEE7FEE7B1
:10032000FEE7FEE7FEE7FEE7FEE7FEE7FEE7FEE7A5
:10033000FEE7FEE7FEE7FEE7FEE7FEE7FEE7FEE795
:10034000FEE7FEE7FEE7FEE7FEE7FEE7FEE7FEE785
:10035000FEE7FEE7FEE7FEE7FEE7FEE7FEE7FEE775
:10036000FEE7FEE7FEE7FEE7FEE7FEE7FEE7FEE765
:10037000FEE7FEE7FEE7FEE7FEE7FEE7FEE7FEE755
:10038000FEE7FEE7FEE7FEE7FEE7FEE7FEE7FEE745
:10039000FEE7FEE7FEE7FEE7FEE7FEE7FEE7FEE735
:1003A000FEE7FEE7FEE7FEE7FEE7FEE7FEE7FEE725
:1003B000FEE7FEE7FEE7FEE7FEE7FEE7FEE7FEE715
:1003C000FEE7FEE7FEE7FEE7FEE7FEE7FEE7FEE705
:1003D000FEE7FEE7FEE7FEE7FEE7FEE7FEE7FEE7F5
:1003E000FEE7FEE7FEE7FEE7FEE7FEE7FEE7FEE7E5
:1003F000FEE7FEE7FEE7FEE7FEE7FEE7FEE70000BA
:1004000004480549034A054B70470000690800008D
:100410006D02000098010020980300209801002040
:10042000704770477047754600F02CF8AE460500DF
:100430006946534620F00700854618B020B5FFF7FF
:10044000DFFFBDE820404FF000064FF000074FF0FF
:1004500000084FF0000BAC46ACE8C009ACE8C0099E
:10046000ACE8C009ACE8C00921F007018D4670472F
:1004700010B50446AFF300802046BDE81040FFF7FA
:100480003EBF0000004870471000002001491820BE
:10049000ABBEFEE7260002007047000044F2184C95
:1004A000C4F2000CDCF80010C90723D1DCF80010FE
:1004B000890722D4DCF80010490721D4DCF80010A9
:1004C000090720D4DCF80010C9061FD4DCF800109E
:1004D00089061ED4DCF8001049061DD4DCF8001093
:1004E000012211F0800182EAD1124FF0070108BF0A
:1004F000082113E00022002110E0012100220DE07C
:10050000022100220AE00321002207E00421002248
:1005100004E00521002201E006210022DCF804307D
:10052000012088401843002ACCF8040018BF704707
:1005300040F2A000C2F2000050F8210000B10047D4
:100540007047000045F2184CC4F2000CDCF80010B3
:10055000C90723D1DCF80010890722D4DCF8001089
:10056000490721D4DCF80010090720D4DCF800107A
:10057000C9061FD4DCF8001089061ED4DCF8001070
:1005800049061DD4DCF80010012211F0800182EA36
:10059000D1124FF0070108BF082113E0002200210B
:1005A00010E0012100220DE0022100220AE00321D7
:1005B000002207E00421002204E00521002201E0DE
:1005C00006210022DCF80430012088401843002A6C
:1005D000CCF8040018BF704740F2A000C2F200003F
:1005E00000EB8100006A00B10047704746F2184CEA
:1005F000C4F2000CDCF80010C90723D1DCF80010AD
:10060000890722D4DCF80010490721D4DCF8001057
:10061000090720D4DCF80010C9061FD4DCF800104C
:1006200089061ED4DCF8001049061DD4DCF8001041
:10063000012211F0800182EAD1124FF0070108BFB8
:10064000082113E00022002110E0012100220DE02A
:10065000022100220AE00321002207E004210022F7
:1006600004E00521002201E006210022DCF804302C
:10067000012088401843002ACCF8040018BF7047B6
:1006800040F2A000C2F2000000EB8100006C00B15B
:100690000047704747F2184CC4F2000CDCF8001019
:1006A000C90723D1DCF80010890722D4DCF8001038
:1006B000490721D4DCF80010090720D4DCF8001029
:1006C000C9061FD4DCF8001089061ED4DCF800101F
:1006D00049061DD4DCF80010012211F0800182EAE5
:1006E000D1124FF0070108BF082113E000220021BA
:1006F00010E0012100220DE0022100220AE0032186
:10070000002207E00421002204E00521002201E08C
:1007100006210022DCF80430012088401843002A1A
:10072000CCF8040018BF704740F2A000C2F20000ED
:1007300000EB8100006E00B10047704744F2184C96
:10074000C4F2020CDCF80010C90723D1DCF8001059
:10075000890722D4DCF80010490721D4DCF8001006
:10076000090720D4DCF80010C9061FD4DCF80010FB
:1007700089061ED4DCF8001049061DD4DCF80010F0
:10078000012211F0800182EAD1124FF0070108BF67
:10079000082113E00022002110E0012100220DE0D9
:1007A000022100220AE00321002207E004210022A6
:1007B00004E00521002201E006210022DCF80430DB
:1007C000012088401843002ACCF8040018BF704765
:1007D00040F2A000C2F2000000EB8100D0F88000DF
:1007E00000B100477047000045F2184CC4F2020CFB
:1007F000DCF80010C90717D1DCF80010890716D4FF
:10080000DCF80010490715D4DCF80010090714D4EF
:10081000DCF80010012211F0100182EA11124FF0F1
:10082000040108BF08210AE00022002107E001219D
:10083000002204E00221002201E003210022DCF872
:100840000430012088401843002ACCF8040018BF67
:10085000704740F2A000C2F2000000EB8100D0F827
:10086000A00000B1004770474EF68850CEF200005D
:10087000016840F6000241F4700101604EF2600030
:1008800042F61001C4F20F00C0F28071016143F61C
:10089000D121C0F28E71016042F64051C0F2801247
:1008A000C0F29E1102F50053016003610160026114
:1008B000016001604FF0C0710161704780B540F286
:1008C0006410C2F200000068002818BF804724208E
:1008D000C4F20300016841F00101016080BD000025
:1008E00080B540F26410C2F200004068002818BFD2
:1008F000804741F22400C4F20300016841F0010185
:10090000016080BD80B540F26410C2F200008068D2
:10091000002818BF804742F22400C4F20300016897
:1009200041F00101016080BD80B540F26410C2F267
:100930000000C068002818BF804743F22400C4F2BA
:100940000300016841F00101016080BD80B540F203
:100950006410C2F200000069002818BF804744F20A
:100960002400C4F20300016841F00101016080BD70
:1009700080B540F26410C2F200004069002818BF40
:10098000804745F22400C4F20300016841F00101F0
:10099000016080BD80B540F26410C2F20000806941
:1009A000002818BF804746F22400C4F20300016803
:1009B00041F00101016080BD80B540F26410C2F2D7
:1009C0000000C069002818BF804747F22400C4F225
:1009D0000300016841F00101016080BD80B540F273
:1009E0006410C2F20000006A002818BF80474CF271
:1009F0002400C4F20300016841F00101016080BDE0
:100A000080B540F26410C2F20000406A002818BFAE
:100A100080474DF22400C4F20300016841F0010157
:100A2000016080BD80B540F26410C2F20000806AAF
:100A3000002818BF80474EF22400C4F2030001686A
:100A400041F00101016080BD80B540F26410C2F246
:100A50000000C06A002818BF80474FF22400C4F28B
:100A60000300016841F00101016080BD2DE9F047FC
:100A700000F06EF9804600284FF005004FF00101AC
:100A800018BF4FF0010800F0FBFF824600284FF02E
:100A900005004FF0030118BF4FF0010A00F0F0FF0E
:100AA000064600284FF005004FF0020118BF01264E
:100AB00000F0E6FF074600284FF004004FF0010168
:100AC00018BF012700F0DCFF044600284FF00100AA
:100AD0004FF006014FF0000218BF012400F010F99A
:100AE0000238B0FA80F04FEA5019032002210122A7
:100AF00000F006F90238B0FA80F040F6A14245094C
:100B0000C0F200020320022100F01AF90238B0FA04
:100B100080F04009284340EA09002043384330432D
:100B200040EA0A0040EA080000F00100BDE8F08752
:100B300082B040F2951640F294170025C2F20006EA
:100B4000C2F200074FF003084FF0010A0DF1070948
:100B500004248DF8075000BF307805286FD8DFE8EF
:100B600000F0212D3D456E0305200321347000F077
:100B7000B7FF0020002100F031F90120002100F032
:100B80002DF91E2000F05EF900F078F94FF47A702C
:100B90004FF47A7100F0A8F90520032100F08CFFD2
:100BA0003D70D9E7012006214A4600F085F89DF8FE
:100BB0000700012808BF86F800A0CDE7002086F8CE
:100BC000008000F07BF90420012100F089FF4FF440
:100BD0007A704FF47A7100F087F9BDE704200121A3
:100BE000357000F07DFF00F059F9B5E704200121D0
:100BF000347000F061FF0520012100F071FF00203A
:100C0000002100F0EBF80120002100F0E7F832208D
:100C100000F018F900F032F94FF47A704FF47A715D
:100C200000F062F94FF47A704FF47A7100F05CF9D9
:100C30000520012100F040FF87F800A08CE73878FC
:100C4000022100284FF0030018BF05203070052056
:100C500000F046FF00F022F94FF4FA704FF47A7179
:100C600000F042F90020002100F0B8F80120012135
:100C700000F0B4F800F002F94FF4FA704FF47A7112
:100C800000F032F900F00AF94FF4FA704FF47A717B
:100C900000F02AF90520022100F00EFF5CE70000B9
:100CA00080B5012000F00AF940F29510C2F2000070
:100CB0000221017080BD000010B582B014460022F0
:100CC0008DF807200DF1070200F060F910B1022045
:100CD00002B010BD9DF8070001280BD1C8204FF4C9
:100CE0007A7100F001F90138B0FA80F04009400053
:100CF000012101E000210020217002B010BD0000A0
:100D000070B582B005468DF8040004208DF8060009
:100D100001A816460C468DF8051000F067F900286A
:100D200018BF0120012E4FEA400606D12846214671
:100D300000F0EEF8002818BF0226304602B070BD61
:100D400080B500F077FA002818BF0120400080BD70
:100D50002DE9F04182B042F67E08C0F2000840F270
:100D60000120B8F80110ADF8060001A8ADF8041094
:100D700000F03CF920B103240125E80725D11FE04C
:100D80000125002701AC00BF08EB0706B6F80300F9
:100D9000ADF80400204600F029F970B9B7FA87F0E1
:100DA0004FEA5015AFB9F088ADF80400204600F0C6
:100DB0001DF9002807F10507E6D00324E80704D150
:100DC00000F0F2FE002818BF0324204602B0BDE860
:100DD000F0810024E807F8D1F2E7000070B542F690
:100DE0007E060C460025C0F2000600BF715D814200
:100DF00004D00535052DF9D0012070BD012C0DD092
:100E000054B9711948788978012200F039FA00281C
:100E10001CBF032070BD0BE0022070BD7119487823
:100E20008978002200F02CFA00281CBF032070BD36
:100E30007119C8780979224600F022FA002818BFF3
:100E4000032070BDB0B564280BD844F24025044699
:100E5000C0F20F05002021460A222B4600F060FE5A
:100E600008B10320B0BD012021460A222B4600F024
:100E700057FE002818BF0320B0BD000080B5002039
:100E800000F0C6FE00281CBF032080BD012000F03A
:100E9000BFFE002818BF032080BD000080B50020E1
:100EA00000F02CFF00281CBF032080BD002000F0B4
:100EB00025FF002818BF032080BD0000B0B5012821
:100EC0000BD840F26115C2F2000508D1044628781B
:100ED00018B9002000F0ECFC10B10120B0BD0024D6
:100EE00000202C70B0BD000080B540F26112C2F24B
:100EF00000021378002B1CBF022080BD0A46014669
:100F0000002000F085FB002818BF012080BD0000F4
:100F10000246052801D901200CE0072901D9022049
:100F200008E0002004294FF0000388BF0123052AB0
:100F300008BF580010B5002818BF10BD0023C4F228
:100F40000203042A38BF4FF0402303EB0233D3F8E7
:100F500010444FF0010E4EF2001C0EFA01F1CEF2D9
:100F6000000C2143052AC3F8101405D14FF080412D
:100F7000CCF8001062B610BD02F01F010EFA01F1AC
:100F8000C2F342124CF8221062B610BD002A04BF10
:100F9000052070470346052801D901200EE00729E6
:100FA00001D902200AE0002004294FF0000C88BF7C
:100FB0004FF0010C052B08BF4FEA4C00002818BF6A
:100FC000704740F2000CC4F2020C042B38BF4FF003
:100FD000402C0CEB0333D3F8FCC301238B4003EA12
:100FE0000C0323FA01F111707047000070B530B1A5
:100FF000037890F801C0052B03D9012510E00020EB
:1010000070BDBCF1070F01D9022509E00025BCF134
:10101000040F4FF0000188BF0121052B08BF4D00D0
:101020004FF001010DB1084670BD4EF20862C4F2E6
:101030000F021468994021431160817840F2000E3C
:101040000529C4F2020E23D8DFE801F00327425C31
:101050007EA07146042B38BF4FF0402101EB0331D5
:1010600040F21C520A431468012606FA0CF6344377
:10107000146041F4A5621468B443146041F48462BE
:10108000146841F48061B44314600A68B243A1E07B
:101090000325002D40F0BC809EE07146042B38BF34
:1010A0004FF0402101EB033140F21C520A43146817
:1010B000012606FA0CF63443146041F4A562146864
:1010C000B443146041F48462146841F4806138E0F0
:1010D0007146042B38BF4FF0402101EB033141F43E
:1010E00080621468012606FA0CF6B443146040F2DC
:1010F0001C520A43146841F4A561B44314600A68A1
:1011000032430A607146042B38BF4FF0402101EB97
:10111000033140F21C520A431468012606FA0CF609
:101120003443146041F4A5621468B443146041F47C
:1011300084621468B443146041F48062146841F41A
:10114000A261B443146043E07146042B38BF4FF0F2
:10115000402101EB033140F21C520A43146801267E
:1011600006FA0CF63443146041F4A5621468B443E3
:10117000146041F484621468B443146041F48062E2
:101180001468B443146040F2145220E07146042BFA
:1011900038BF4FF0402101EB033140F21C520A43AB
:1011A0001468012606FA0CF63443146041F4A56273
:1011B0001468B443146041F484621468B443146046
:1011C00041F4806214683443146040F20C521143BD
:1011D0000A6832430A60DDB9042B38BF4FF0402E55
:1011E0000EEB033343F480610A68012101FA0CF12C
:1011F0000A4032FA0CF20BD0C07802280AD001283B
:1012000010D000281CBF052070BD43F4A0600CE086
:10121000284670BD43F4A16002681143016029466D
:10122000084670BD40F20450184302681143016043
:10123000284670BD80B522B18646052803D9012015
:1012400011E0052080BD072901D902200BE0002014
:1012500004294FF0000C88BF4FF0010CBEF1050FC0
:1012600008BF4FEA4C00002818BF80BD40F2A00321
:10127000C2F2000303EB4E1343F8212080BD0000AF
:1012800010B58646052801D901200FE0072901D9AC
:1012900002200BE0002004294FF0000C88BF4FF023
:1012A000010CBEF1050F08BF4FEA4C00002818BF23
:1012B00010BD0023C4F20203BEF1040F38BF4FF08B
:1012C000402303EB0E3EDEF80044012303FA01FC49
:1012D00004EA0C0333FA01F109D0012A09D032B92A
:1012E0004EF47F710A6822EA0C020A6010BD0520E4
:1012F00010BD4EF47F710A6842EA0C020A6010BD0C
:1013000040F2000200EB4001C2F20002535C0B2BE2
:1013100038D840F2180CC4F2030C0022DFE803F0C6
:1013200035060A0E12161A1E22262A2E0CF5805C8D
:1013300000222AE00CF5005C002226E00CF5405C5F
:10134000002222E00CF5804C00221EE00CF5A04C9F
:1013500000221AE00CF5C04C002216E00CF5E04C1F
:10136000002212E00CF5404C00220EE00CF5504C2F
:1013700000220AE00CF5604C002206E00CF5704CEF
:10138000002202E04FF0180C0122002A1CBF0420AA
:101390007047DCF800100B2841F00101CCF8001078
:1013A00000F26E80DFE800F0060F182129313A4381
:1013B0004A51585F4EF20C10CEF200004FF400215B
:1013C00040F80C1C56E04EF20C10CEF200004FF428
:1013D000001140F80C1C4DE04EF20C10CEF2000053
:1013E0004FF4000140F80C1C44E04EF20C10CEF219
:1013F0000000082140F8081C3CE04EF20C10CEF230
:101400000000402140F8041C34E04EF20C10CEF2F3
:1014100000004FF0805140F8041C2BE04EF20C10FD
:10142000CEF200004FF0804140F8041C22E04EF262
:101430000C10CEF20000012101601BE04EF20C10F6
:10144000CEF200000421016014E04EF20C10CEF246
:101450000000102101600DE04EF20C10CEF20000F1
:101460004021016006E04EF20C10CEF200004FF475
:10147000807101600020002818BF704762B6704775
:101480000120F8E72DE9F04F81B040F29610C2F24A
:101490000000007810B14FF00009A1E04EF20464A2
:1014A00040F2000840F2000A4AF6AB2CC4F20F04E6
:1014B0004FF00009C4F20308C2F2000ACAF6AA2CCF
:1014C0004FF0010B00260AE04FF004090127002F1E
:1014D00040F08080022E06F1010600F07B8006EBD2
:1014E00046011AF801000B2800F2728051444A7834
:1014F000012A00F26D80A0FB0C37BB0803EB43030D
:101500000746062828BFA7EB4307234628BF5833C2
:101510001D680BFA07F72F430B281F600CD8002714
:101520004346DFE800F029060E1114171A1D202388
:10153000262B08F5805323E000230127002FC3D179
:1015400022E008F500531BE008F5405318E008F5C9
:10155000804315E008F5A04312E008F5C0430FE012
:1015600008F5E0430CE008F5404309E008F5504376
:1015700006E008F56043002737B1A5E708F570439A
:101580000027002F7FF4A0AF1F6847F004071F60FB
:101590004FF0010712B1012A14D1022743F00402CF
:1015A00013683B431360136823F0100313608978BA
:1015B00019B96546FFF7A4FEAC460027002F3FF49B
:1015C00089AF07E04FF00209002F3FF483AF01E03D
:1015D0004FF0020940F296110120C2F2000108709A
:1015E0005FFA89F001B0BDE8F08F000002460328E1
:1015F0004FF0010009D8002908BF704740F264107D
:10160000C2F2000040F822100020704700000000E5
:101610002DE9F04F87B002284FF0010400F221813C
:101620000023B3EB114F40F01C8144F24023012A08
:10163000C0F20F0318BF9A4219D100EB400940F2E3
:101640000000C2F2000010F809700B2F14D840F20D
:101650000008C4F203080020DFE807F02E06131686
:10166000191C1F2225282B3108F5805829E0B2F5D6
:101670007A7FE2D00124F4E04FF000080120E0B9C5
:1016800022E008F500581CE008F5405819E008F57C
:10169000804816E008F5A04813E008F5C04810E0BF
:1016A00008F5E0480DE008F540480AE008F5504824
:1016B00007E008F56048002030B10424D1E008F5C7
:1016C000704800200028F8D19A4208D0B2F57A7FFD
:1016D0000BD0012A15D1084600F016FE0EE0084690
:1016E00000F012FE9FED640B04E0084600F00CFED3
:1016F0009FED630B53EC102B00F02AFC41EC100B18
:1017000001E09FED5B0B9FED601B55EC106B53EC04
:10171000112B30462946032401F091F8002840F0AF
:10172000A0809FED5B0B304653EC102B294601F057
:1017300071F8002840F095809FED570B304653EC30
:10174000102B2946CDE9042300F06AFE9FED540BCF
:1017500053EC102B00F0FCFB07460C4600F08EFD0E
:10176000CDF81890814600F0B8FD02460B46384689
:10177000214600F053FF9FED4C0B82468B4653EC05
:10178000102B38462146CDE9022300F02DFB00F056
:1017900075FD9FED370B074653EC102B504659460D
:1017A00001929B4601F036F848F0380100240028E9
:1017B00008BF4F460C600A68B8B202430A6000F0E6
:1017C000A3FDDDE9042300F0C3FB02460B463046CF
:1017D000294600F0BDFB06460F4600F04FFD81464E
:1017E00000F07BFD02460B463046394600F016FFFE
:1017F000DDE9022305468A463046394600F0F4FA10
:1018000000F03CFD019A0646284651465B4601F031
:1018100001F8002848F0280008BF4E46066048F04E
:101820000C00016840F2000241F001010160016812
:10183000C2F2000241F00201016006991144897868
:1018400001290ED148F01C010A68D20702D10268B2
:10185000D207F9D148F024000168002441F00101C9
:101860000160204607B0BDE8F08F00BF00BF00BF99
:1018700000000000000000000000000080842E41F5
:101880000000000000408F408DEDB5A0F7C6703E0F
:101890008B8EE4F21FB6F03F0000000080846E41A2
:1018A00000000000E0FFEF40000000000000F03FFB
:1018B00080B5022884BF012080BD40F2000200EB09
:1018C0004001C2F20002525C40F2240E0B2AC4F224
:1018D000030E00F28280AEF1240C0023DFE802F058
:1018E00031060A0D101316191C1F222A0EF6DC7C75
:1018F000002326E042F2240116E042F224011BE01C
:1019000044F2240110E044F2240115E046F22401DF
:101910000AE046F224010FE04CF2240104E04CF20C
:10192000240109E04EF22401C4F20301A1F1240CC8
:10193000002306E04EF22401C4F2030101F6DC7C30
:101940000023002B1CBF042080BD4CF00C010A6852
:101950000B2822F001020A6043D87346DFE800F04A
:1019600042060B10151A1F24292E333841F2240386
:10197000C4F2030336E042F22403C4F2030331E06D
:1019800043F22403C4F203032CE044F22403C4F220
:10199000030327E045F22403C4F2030322E046F2E6
:1019A0002403C4F203031DE047F22403C4F203033B
:1019B00018E04CF22403C4F2030313E04DF22403B5
:1019C000C4F203030EE04EF22403C4F2030309E061
:1019D0004FF22403C4F2030304E04FF0000C012390
:1019E000AFE7242319680B2841F001033ED8DFE854
:1019F00000F03F060B10151A1F24292E333841F230
:101A0000240EC4F2030E33E042F2240EC4F2030E9D
:101A10002EE043F2240EC4F2030E29E044F2240E19
:101A2000C4F2030E24E045F2240EC4F2030E1FE0BC
:101A300046F2240EC4F2030E1AE047F2240EC4F25A
:101A4000030E15E04CF2240EC4F2030E10E04DF22A
:101A5000240EC4F2030E0BE04EF2240EC4F2030E69
:101A600006E04FF2240EC4F2030E01E04FF0240E04
:101A70004CF028010020CEF80030086080BD000046
:101A8000024605284FF0010098BF072900D970478A
:101A900080B582B040F20110ADF8060001A88DF8C3
:101AA00004208DF80510FFF7A1FA002818BF0120C7
:101AB00002B0BDE880407047024605284FF00100A3
:101AC00098BF072900D9704780B510460022FFF75C
:101AD000D7FB002818BF0120BDE8804070470000F8
:101AE000024605284FF0010098BF072900D970472A
:101AF00080B510460122FFF7C3FB002818BF012064
:101B0000BDE880407047000080B5FEF7AFFF00B130
:101B1000FEE7FFF70DF8002080BD00000000000088
:101B2000642984BF022070472DE9F04F81B08246BE
:101B3000084615460C4600F0E7FB9FED190B58ECE4
:101B4000109B4A46434600F003FA074628460E46D5
:101B500000F0DAFB05468B46384631462A465B469E
:101B600000F05EFC00F08AFB40F270020AEB4A01D2
:101B7000C2F2000202EB81067080C4F1640000F042
:101B8000ACFB4A46434600F0E3F92A465B4600F0C8
:101B900047FC00F073FBB080002001B0BDE8F08F7F
:101BA00000000000000059402DE9F04182B0FFF72D
:101BB00069FC18B1022002B0BDE8F08142F6660669
:101BC0004FF00008C0F2000640F2012701AC00BF50
:101BD000002500BF36F81500ADF80670ADF804001A
:101BE0002046FFF703FA18B9022D05F10105F1D3DC
:101BF00030B908F10108B8F1040F06F10606E7D183
:101C0000002818BF0120400002B0BDE8F0810000AC
:101C10002DE9F04381B0014603284FF0020062D85D
:101C200040F29712C2F200021378002B5BD1581CCD
:101C300040F27009107040F26018C2F2000901EB26
:101C40004100C2F2000809EB800488F8001001216D
:101C5000254609F8201035F8021F42F66602C0F248
:101C6000000202EB400661B3002700BF06EB47010C
:101C700016F8170049780122FFF702FB18B9022F66
:101C800007F10107F2D198F80010A288002801EBB3
:101C9000410109EB810118BF0120002A4FF0010228
:101CA0004A7023D041F67551C0F200010220FFF7BF
:101CB0009DFC2988A268022001B0BDE8F043FFF72F
:101CC000A7BC002406EB440116F814004978002252
:101CD000FFF7D6FA18B9022C04F10104F2D100285A
:101CE00018BF0120400001B0BDE8F0832988002919
:101CF000D8D0400001B0BDE8F083000070B50328E3
:101D000084BF012070BD40F2700400EB4005C2F2B8
:101D1000000414F8250001281CBF002070BD02201B
:101D2000FFF7C6FD002818BF70BD42F66600C0F27E
:101D3000000004EB850400EB4505002605EB460199
:101D400015F8160049780022FFF79AFA18B9022E02
:101D500006F10106F2D10021002818BF01202170F0
:101D600040F29711C2F200010A784000013A0A706D
:101D700070BD00002DE9F04140F26016C2F200068D
:101D8000307840F2700100EB4000C2F2000101EB3C
:101D900080004178821C4C1E18BF0124012908BF15
:101DA000021DB2F8008044700220FFF781FD42F668
:101DB00066056FF00107C0F2000500BF30782246CB
:101DC00000EB400007EB400029188878C978FFF73E
:101DD00057FA0237042FF1D1022041464FF47A72AC
:101DE000BDE8F041FFF714BC10B591EA030F48BFFE
:101DF00083F0004300F11A84841A71EB030C05D2BE
:101E0000121943EB0C03001B61EB0C014FEA115458
:101E1000A4EB135CDFF81CE11EEA430F18BF9EEA37
:101E2000445F00F0748021EA045123EA0E0343F476
:101E30008013DCF1200E32D322FA0CFE10EB0E00E0
:101E400023FA0CFE41EB0E01CCF1200E03FA0EFE3C
:101E500010EB0E00CCF1200E51F10001B1F5801F06
:101E600032D201EB045112FA0EF2BDE8104058BF15
:101E70007047401C38BF5FEA420218BF7047002815
:101E800014BF20F0010041F100014FEA410313F5B6
:101E9000001F38BF7047A1F1C04100F0B9BB012A53
:101EA00043EB0302ACF1200CDCF11F0E32BF4FF00C
:101EB000000E23FA0CF310EB030041EB0451B4EBDA
:101EC000115FD0D0A1EB045101F58011490801EB5D
:101ED00004515FEA30000ED350F1000038BF12FA0F
:101EE0000EFE08D1BDE81040C9E7401C38BF5FEACC
:101EF0004202CAD1C3E7BDE810404FEA410313F5DF
:101F0000001F38BF7047A1F1C04100F081BB9EEABD
:101F1000445F08D011EA5E0FBDE8104004BF01F035
:101F2000004100207047BDE8104070B500F022FB72
:101F300064FBBE3E0000E0FF491058BFC1F14041C4
:101F40005B1058BFC3F140438B42EFF300807047F2
:101F50002DE9C04130B4DFF8A4C23CEA111418BF27
:101F60003CEA131400F0ED801CEA111481EA030529
:101F700044EAD57418BF1CEA131500F0C880A4EB1E
:101F8000050404F17F7404F500344FF0004545EA80
:101F9000C12145EAC32341EA505143EA52534FEA73
:101FA000C0204FEAC222994208BF904200F09D80B3
:101FB0004FEA13650FF24416765D4FEA134506FBB0
:101FC00005F7C7F1807706FB07F74FEAD737A7FB7E
:101FD00003687642A7FB06CEC8F5803838BFA8F163
:101FE000010807FB08E6A6FB028C4FF0000EE6FB9B
:101FF00003CEDCF1000CCEF1004E38BFAEF1010E85
:10200000A6FB0C584FF00007E6FB0E87A1FB08C6A5
:10201000A0FB07CE16EB0E064FF0000545F10005BC
:10202000E1FB076515F1E04E7EBFA4F580345FEA61
:1020300046066D4116F1800745F100054FEA172766
:1020400047EA05674FEA15254FEA0666A6F1DE4620
:10205000B6F1805F20D9384605EBC47124F0010C3D
:1020600001EB0C11BCF1FE6F02D8F0BCBDE80081A1
:1020700024425CBF01F5801E9EEAC47F02D4F0BCFE
:10208000BDE80081244200F13980A1F1C041F0BCDB
:10209000BDE8004100F0BCBA4FEAD02040EA415010
:1020A0004FEAD1214FEAD22242EA43524FEAD323E8
:1020B000A7FB028607FB036605FB02661EEA0E0FFE
:1020C00058BFA6EB0056B6EB00564FEA520E4EEA4A
:1020D000C37E18EB0E0E56EB530EBCD518EB020860
:1020E0005E417F1C55F10005B5E74FF480154FF0B8
:1020F00000074FF000064FF00008ACE701F1C041C7
:1021000001F000414FF00000F0BCBDE800810CEA96
:10211000131511EA0C1F00D00CE013EA0C1F00F09D
:1021200026804FF0000081EA030101F00041F0BC7D
:10213000BDE80081F0BCBDE8004181EA030100F088
:1021400067BAF0BCBDE8004170B500F013FA00BFFB
:10215000097EFC3E00F007B84FF0000081EA030161
:1021600001F00041704781EA030100F051BAF0BC70
:10217000BDE8004122494FF000007047FFFDFBF928
:10218000F7F5F4F2F0EEEDEBE9E8E6E4E3E1E0DEAA
:10219000DDDBDAD8D7D5D4D3D1D0CFCDCCCBCAC81C
:1021A000C7C6C5C4C2C1C0BFBEBDBCBBBAB9B8B743
:1021B000B6B5B4B3B2B1B0AFAEADACABAAA9A8A836
:1021C000A7A6A5A4A3A3A2A1A09F9F9E9D9C9C9B04
:1021D0009A999998979796959594939392919190AF
:1021E0008F8F8E8E8D8C8C8B8B8A89898888878740
:1021F0008685858484838382828181800000FF07B5
:102200000000F87F51EA030C17D41CF5801F58BF5B
:10221000BCF5801F00F10680994218BF704708BFC7
:102220009042704707D711F5801F58BF13F5801FE4
:1022300019D499427047894270471CF5801F08D510
:10224000BCF5801FF7D58B4218BF704708BF82428C
:1022500070474FF4001C1CEB410F38BF1CEB430FC1
:1022600001D28B42704770B500F084F99224490086
:102270004FF000514FF08053FFF75EBE4FEA41032D
:102280004FEA5353A3F58063D3F11E03C8BFD3F1C4
:10229000210C0CDD4FF0004242EAC12242EA5052CA
:1022A00032FA03FC8CEAE17CACEBE1707047102B56
:1022B000C4BF0020704703F5787CBCF1FF3F04D019
:1022C0006FF0004282EA2100704770B500F052F9C9
:1022D0004992248000207047F2E710F0004248BF86
:1022E0004042B0FA80F310FA03F10AD0C3F11D03A3
:1022F00003F5806302EB03524FEA415002EBD12118
:1023000070474FF000007047B0FA80F310FA03F105
:102310000AD0C3F11D0303F580634FEA03524FEA6D
:10232000415002EBD12170474FF000007047000090
:1023300051EA030C17D41CF5801F58BFBCF5801F51
:1023400000F10680994218BF704708BF904270475D
:1023500007D711F5801F58BF13F5801F19D4994274
:102360007047894270471CF5801F08D5BCF5801F57
:10237000F7D58B4218BF704708BF824270474FF4B1
:10238000001C1CEB410F38BF1CEB430F01D28B42EA
:10239000704770B500F0EEF8922449004FF080517C
:1023A0004FF00053FFF7C8BD51EA030C17D41CF5DA
:1023B000801F58BFBCF5801F00F10680994218BFEE
:1023C000704708BF9042704707D711F5801F58BF6C
:1023D00013F5801F19D499427047894270471CF544
:1023E000801F08D5BCF5801FF7D58B4218BF7047FA
:1023F00008BF824270474FF4001C1CEB410F38BFEE
:102400001CEB430F01D28B42704770B500F0B2F85D
:10241000922449004FF000514FF08053FFF78CBDDC
:1024200070B5DFF848C11CEA111E1EBF1CEA131567
:102430009EEA0C0F95EA0C0F00F06F8081EA03040E
:102440004EEAD47EAE4421EA4C1123EA4C1341F407
:10245000801143F48013AEF17F7EA1FB024CA0FB00
:102460000365361955EB0C05A1FB034C4CF1000339
:10247000A0FB021C16EB0C06654153F10003094258
:1024800018BF46F0010613F4007F0BD14FEA033169
:102490004FEA053041EA155140EA165034036FF017
:1024A00003020AE04FEAC3214FEAC52041EA555131
:1024B00040EA5650F4026FF0020202EB2E4201EBAA
:1024C000025585EACE710AD05FEA440C18BF24F0A9
:1024D000004450F1000041F1000120EAD47040F2C4
:1024E000FE7C624500D270BDA84214BF4FF080440C
:1024F0004FF04044002E08BF0024BEF1806FA8BFFB
:10250000A1F1C041BDE8704080F2828001F1C0417C
:1025100001F000414FF0000070470CEA13159EEAED
:102520000C0F18BF95EA0C0F06D081EA030E4FF08E
:1025300000000EF0004170BD00F01CF88900013E63
:1025400000F007B800F009B84FEA430C5FEA5C5CA2
:1025500008D081EA030100F05BB84FEA410C5FEA62
:102560005C5CF6D102494FF0000070470000FF07A5
:102570000000F87F0EF1020E2EF0030E5EF8046BE1
:10258000364205D4012A43EB030515F5001F12D886
:10259000012841EB010C1CF5001F0CD80ED14FEAAD
:1025A000D17C0CEB4C0C0CF1020C15F5001F08BF94
:1025B0004CEBD37C04E04FF0080C01E04FEAD37CF5
:1025C0000CEB4C0526FA05F606F00706B6F1040CEE
:1025D00006D20EEB860CBDE870404CF0010C604753
:1025E000DFE80CF0090B02024FF00041A1F50021D9
:1025F0004FF0000070BD19461046012851EB010450
:1026000018BFD4F5001484BF002001F0004170BD54
:102610000808A0F500114FEA3101704710B591EAA2
:10262000030F48BF83F000433FF5E6AB841A71EB1C
:10263000030C07D28CF0004C121943EB0C03001B67
:1026400061EB0C014FEA1154A4EB135CDFF8A4E139
:102650001EEA430F18BF9EEA445F00F0B48021EAEF
:10266000045123EA6E035242C3EB6E0338BF5B1E74
:10267000DCF1200E25D322FA0CFE10EB0E0043FAFB
:102680000CFE41EB0E01CCF1200E03FA0EFE10EB16
:102690000E00CCF1200E51F1000129D401EB0451C0
:1026A00012FA0EF2BDE8104058BF7047401C1CBF24
:1026B000B2F1004F704700280CBF491C20F0010008
:1026C000704712EB020E43EB030218BF4FF0010EEE
:1026D0004EEA4202ACF1200CDCF11E0E56D943FA50
:1026E0000CFE10EB0E00CCF11E0E51F1FF31D5D5D2
:1026F0000EF1010E12FA0EFE404141EB010101EB19
:10270000445C5FEA5C5C10D901EB045110EBDE70B5
:1027100038BFBEF1004FBDE8104018BF7047002819
:102720000CBF491C20F00100704734D24FEAD42C72
:1027300024F4006411F500111BD0B1FA81F20B3AB8
:10274000A41AA41ED2F12003914030FA03F31943D6
:10275000904001EBCC7101EB0451002CBDE810401E
:10276000A8BF704701F1C04101F000414FF00000E7
:102770007047B0FA80F310FA03F102D1BDE81040BF
:102780007047E41A173C4805C90AE2E701EB045117
:10279000BDE81040704749104FEA300001EB04518A
:1027A000BDE8104002E04FF0000170474A0008BF4A
:1027B0000042F8D0B2F5001F28BF704701F0004179
:1027C0004FF0000070479EEA445F07D011EA5E0FA9
:1027D000BDE8104004BF002100207047BDE8104054
:1027E00070B5FFF7C7FE00BF40DFF63E104683F02E
:1027F000004170470000E0FF10B5FFF703FD0CBF7C
:102800000120002010BD10B5FFF7FCFC14BF012013
:10281000002010BD10B5FFF78BFD8CBF01200020FC
:1028200010BD10B5FFF784FD2CBF0120002010BDA6
:1028300010B5FFF7B9FD94BF0120002010BD10B501
:10284000FFF7B2FD34BF0120002010BDF1EE100AE9
:102850004FF6FF71C0F2C03120EA010040F0407035
:10286000E1EE100A704705000107000000000000BB
:102870000000000000000000000000000000000454
:102880000204030104040405A8280000000000203D
:102890000C000000A8020000B42800001000002076
:1028A00088030000C40200000000010101000201D1
:0428B0000000000024
:040000050000030DE7
:00000001FF
